:100000000C9463000C948B000C948B000C948B006C
:100010000C948B000C948B000C948B000C945D035F
:100020000C948B000C948B000C948B000C940304A8
:100030000C948B000C948B000C948B000C948B0014
:100040000C94B9030C948B000C948B000C948B00D3
:100050000C948B000C948B000C948B000C948B00F4
:100060000C948B000C948B000000000024002700EF
:100070002A0000000000250028002B0002000000DC
:1000800000230026002900040404040404040402DC
:100090000202020202030303030303010204081025
:1000A00020408001020408102001020408102000F2
:1000B0000000080002010000030407000000000027
:1000C00000000000390A11241FBECFEFD8E0DEBFC8
:1000D000CDBF11E0A0E0B1E0EEECF5E102C005908B
:1000E0000D92A230B107D9F721E0A2E0B1E001C042
:1000F0001D92AA38B207E1F710E0C3E6D0E004C0D1
:100100002197FE010E94DF0AC236D107C9F70E947B
:10011000C4040C94E50A0C940000833081F028F4A8
:10012000813099F08230A1F008958730A9F08830AD
:10013000B9F08430D1F4809180008F7D03C080912C
:1001400080008F7780938000089584B58F7702C0F8
:1001500084B58F7D84BD08958091B0008F7703C0F2
:100160008091B0008F7D8093B0000895CF93DF938E
:10017000E1EBF0E08491EDE9F0E0D491E9E8F0E022
:10018000C491CC2391F081110E948D00EC2FF0E0FE
:10019000EE0FFF1FE358FF4FA591B491EC91ED23B3
:1001A00081E090E021F480E002C080E090E0DF9107
:1001B000CF9108951F93CF93DF93282F30E0F9015B
:1001C000E155FF4F8491F901E556FF4FD491F901B4
:1001D000E957FF4FC491CC23C1F0162F81110E9423
:1001E0008D00EC2FF0E0EE0FFF1FEE58FF4FA591B2
:1001F000B4919FB7F894111104C08C91D095D82375
:1002000002C0EC91DE2BDC939FBFDF91CF911F9159
:10021000089590910001891324C0ECE7F0E0E49187
:100220009FEF90930001E130B9F098F0E230C9F40B
:10023000909170009D7F9093700091E09093B0003A
:100240009091B100987F94609093B1001092B300A8
:1002500008C010926E0005C090916F009D7F909332
:100260006F0060E00C94DA00CF93DF9390E0FC0124
:10027000E556FF4F2491FC01E957FF4F84918823F5
:1002800061F190E0880F991FFC01E859FF4FC5917B
:10029000D491FC01EE58FF4FA591B491611109C0B2
:1002A0009FB7F8948881209582238883EC912E2330
:1002B0000BC0623061F49FB7F8948881322F30957B
:1002C00083238883EC912E2B2C939FBF06C08FB77E
:1002D000F894E8812E2B28838FBFDF91CF9108956A
:1002E0003FB7F8948091050190910601A091070114
:1002F000B091080126B5A89B05C02F3F19F00196C3
:10030000A11DB11D3FBFBA2FA92F982F8827820F9B
:10031000911DA11DB11DBC01CD0142E0660F771FEB
:10032000881F991F4A95D1F708958F929F92AF9297
:10033000BF92CF92DF92EF92FF926B017C010E94FD
:1003400070014B015C01C114D104E104F104F1F02E
:100350000E947001DC01CB0188199909AA09BB0927
:10036000883E9340A105B10570F321E0C21AD1087F
:10037000E108F10888EE880E83E0981EA11CB11CEC
:10038000C114D104E104F10419F7DDCFFF90EF901F
:10039000DF90CF90BF90AF909F908F900895CF92B5
:1003A000DF92EF92FF92CF93DF93EC01603282E015
:1003B00078070CF03DC077FD06C0653B71052CF059
:1003C00064EB70E002C060E070E0898128E830E012
:1003D0006901C81AD10887FDD394CC0CDD1CCC0C64
:1003E000DD1C0D2C000CEE08FF088A8128E532E0A8
:1003F000281B310987FD3395220F331F220F331F2E
:10040000C901330FAA0BBB0B9C01AD012C193D098F
:100410004E095F09DB010E949A0A24EB30E040E0BC
:1004200050E00E94700AC20ED31EE41EF51EB601F3
:1004300038813C3080F5298188E890E0821B910961
:1004400027FD9395880F991F880F991F68177907C3
:1004500084F08A8148E552E0481B510987FD539595
:10046000440F551F440F551FCB01461757070CF477
:10047000CA010297880F991F4FB7F894232F30E0D5
:10048000F901EE0FFF1F2E0F3F1FF901E75FFE4F2F
:10049000928381834FBFDF91CF91FF90EF90DF90E8
:1004A000CF900895892B79F41092800082E0809398
:1004B00081001092850010928400B19A80916F00A3
:1004C000826080936F00089561E370E08BE391E0B8
:1004D0000E94CF0168E270E08EE391E00E94CF01BC
:1004E0006AEF70E080E090E00E94950160E08CE0AF
:1004F0000E94DA0061E087E00E94DA0061E870E0C3
:100500008BE391E00E94CF0168E770E08EE391E019
:100510000E94CF016AEF70E080E090E00E949501B8
:1005200061E08CE00E94DA0060E087E00E94DA007F
:1005300061E370E08BE391E00E94CF0168E270E03C
:100540008EE391E00E94CF016AEF70E080E090E0DE
:100550000E94950160E08CE00E94DA0061E087E093
:100560000E94DA0061E870E08BE391E00E94CF0125
:1005700068E770E08EE391E00E94CF016AEF70E0DF
:1005800080E090E00E94950161E08CE00E94DA003A
:1005900060E087E00E94DA0061E370E08BE391E0C5
:1005A0000E94CF0168E270E08EE391E00E94CF01EB
:1005B0006AEF70E080E090E00E94950160E08CE0DE
:1005C0000E94DA0061E087E00E94DA0061E870E0F2
:1005D0008BE391E00E94CF0168E770E08EE391E049
:1005E0000E94CF016AEF70E080E090E00E949501E8
:1005F00061E08CE00E94DA0060E087E00E94DA00AF
:1006000061E370E08BE391E00E94CF0168E270E06B
:100610008EE391E00E94CF016AEF70E080E090E00D
:100620000E94950160E08CE00E94DA0061E087E0C2
:100630000E94DA0061E870E08BE391E00E94CF0154
:1006400068E770E08EE391E00E94CF016AEF70E00E
:1006500080E090E00E94950161E08CE00E94DA0069
:1006600060E087E00C94DA00CF93DF93EC0160E068
:1006700087E00E94DA0060E08CE00E94DA0060E02F
:100680008DE00E94DA0062E170E08EE391E00E946A
:10069000CF016AE770E08BE391E00E94CF0189E728
:1006A0008C9FB0018D9F700D1124072E000C880BBC
:1006B000990BDF91CF910C9495011F920F920FB679
:1006C0000F9211242F933F934F935F936F937F93D8
:1006D0008F939F93AF93BF93EF93FF938091860186
:1006E00090918701A0918801B0918901892B8A2B73
:1006F0008B2B51F190918501E0918301F091840160
:100700008081892780838091860190918701A091C3
:100710008801B0918901181619061A061B06C4F43F
:100720008091860190918701A0918801B091890103
:100730000197A109B1098093860190938701A09345
:100740008801B093890104C0809100010E940901D1
:10075000FF91EF91BF91AF919F918F917F916F9199
:100760005F914F913F912F910F900FBE0F901F906F
:1007700018951F920F920FB60F9211242F933F934B
:100780008F939F93AF93BF938091370190913801DE
:10079000A0913901B0913A013091040123E0230F77
:1007A0002D3720F40196A11DB11D05C026E8230FA9
:1007B0000296A11DB11D20930401809337019093EF
:1007C0003801A0933901B0933A01809105019091CD
:1007D0000601A0910701B09108010196A11DB11D6C
:1007E0008093050190930601A0930701B09308013F
:1007F000BF91AF919F918F913F912F910F900FBE1D
:100800000F901F9018951F920F920FB60F92112400
:100810002F933F934F935F936F937F938F939F9308
:10082000AF93BF93EF93FF938091030187FF05C0C0
:1008300010928500109284001BC020910301022EAB
:10084000000C330B8091020190E02817390784F4E3
:1008500080910301082E000C990BFC01EE0FFF1F85
:100860008E0F9F1FFC01E75FFE4F808186FD15C044
:10087000809103018F5F8093030120910301022E79
:10088000000C330B8091020190E028173907C4F463
:10089000809103018C3064F113C080910301082E14
:1008A000000C990BFC01EE0FFF1F8E0F9F1FFC0128
:1008B000E75FFE4F808160E08F730E94DA00D8CF3F
:1008C0008091840090918500049680349C4918F4AE
:1008D00080E49CE905C08091840090918500049695
:1008E00090938900809388008FEF809303013BC031
:1008F000209184003091850080910301082E000C26
:10090000990BFC01EE0FFF1F8E0F9F1FFC01E75F8D
:10091000FE4F81819281820F931F90938900809373
:10092000880080910301082E000C990BFC01EE0F4A
:10093000FF1F8E0F9F1FFC01E75FFE4F808186FF28
:1009400012C080910301082E000C990BFC01EE0FE0
:10095000FF1F8E0F9F1FFC01E75FFE4F808161E04C
:100960008F730E94DA00FF91EF91BF91AF919F9139
:100970008F917F916F915F914F913F912F910F9048
:100980000FBE0F901F901895789484B5826084BD37
:1009900084B5816084BD85B5826085BD85B5816083
:1009A00085BD80916E00816080936E001092810001
:1009B00080918100826080938100809181008160BC
:1009C000809381008091800081608093800080917D
:1009D000B10084608093B1008091B0008160809309
:1009E000B00080917A00846080937A0080917A00D0
:1009F000826080937A0080917A00816080937A008F
:100A000080917A00806880937A001092C100809172
:100A10003E018C3008F043C061E085E00E94340163
:100A200080913E01E82FF0E09F01220F331FE20F7B
:100A3000F31FE75FFE4F9081907C9560908310924A
:100A40003F01109240016CE00E94D30A90E00CE05C
:100A5000809FB001112440E050E09B01240F351F1E
:100A6000F901EE0FFF1F2E0F3F1FF901E75FFE4F49
:100A7000208126FD07C04F5F5F4F4C30510569F75D
:100A80000E945202E0913E01F0E0CF01880F991FD1
:100A9000E80FF91FE75FFE4F8081806480838091BB
:100AA0003B018C3008F043C061E086E00E943401D5
:100AB00080913B01E82FF0E09F01220F331FE20FEE
:100AC000F31FE75FFE4F9081907C966090831092B9
:100AD0003C0110923D016CE00E94D30A90E01CE0C2
:100AE000819FB001112440E050E09B01240F351F8D
:100AF000F901EE0FFF1F2E0F3F1FF901E75FFE4FB9
:100B0000208126FD07C04F5F5F4F4C30510569F7CC
:100B10000E945202E0913B01F0E0CF01880F991F43
:100B2000E80FF91FE75FFE4F80818064808360E0FB
:100B30008FE00E94340161E087E00E94340161E0AF
:100B40008CE00E94340161E08DE00E94340161E09C
:100B500083E00E94340160E082E00E943401CAE830
:100B60004C2EC0E05C2EDEE96D2ED0E07D2E1AE02A
:100B7000812E912CA12CB12CCC24CA94DC2C760192
:100B8000C1EDB1E43B2E60E087E00E94DA0060E056
:100B90008CE00E94DA0060E08DE00E94DA0068E4F8
:100BA00070E08EE391E00E94CF0161E670E08BE39C
:100BB00091E00E94CF018091510190915201892BC7
:100BC00009F029C180910001833021F08F3F09F0A5
:100BD000C9C004C0ECE7F0E0D49172C083E0809318
:100BE0000001ECE7F0E084918F3F09F4BBC0813055
:100BF00009F444C040F1823009F061C01092B000A5
:100C00001092B1008091B00082608093B00080911A
:100C1000B10081608093B100F2018491E82FF0E08F
:100C2000EE0FFF1FEE58FF4F859194919093840132
:100C300080938301F30184918093850161E083E0D7
:100C40000E9434015BC014BC15BC84B5826084BDB5
:100C500085B5816085BDF2018491E82FF0E0EE0F4B
:100C6000FF1FEE58FF4F85919491F301849180937B
:100C70002E0161E083E00E9434012DC010928000BB
:100C80001092810080918100886080938100809122
:100C90008100816080938100F2018491E82FF0E06F
:100CA000EE0FFF1FEE58FF4F85919491F301849151
:100CB00080932D0161E083E00E94340128C0D82F89
:100CC000D7FD50C061E083E00E943401DD2319F0BC
:100CD000D230D9F413C085B5887F816085BDC7BD8A
:100CE000C0923301D0923401E0923501F092360186
:100CF00080916E00826080936E0034C08091B1005C
:100D0000887F81608093B1001EC0D130D1F4809182
:100D10008100887F81608093810001ED10E0109355
:100D2000890000938800C0922F01D0923001E09298
:100D30003101F092320180916F00826080936F00E8
:100D400011C0D23079F4C093B300C0928601D09222
:100D50008701E0928801F0928901809170008260A1
:100D60008093700062E370E080E090E00E94950163
:100D70000E94B600892B09F04EC06AEF70E080E057
:100D800090E00E9495010E94B600892B09F043C0B3
:100D900061E087E00E94DA0061E08CE00E94DA0006
:100DA00061E08DE00E94DA0064E670E08EE391E09D
:100DB0000E94CF016DE670E08BE391E00E94CF01CD
:100DC00066E178E080E090E00E94950189E190E0A2
:100DD0000E9434036CE370E08EE391E00E94CF0147
:100DE00065E470E08BE391E00E94CF0160E778E07A
:100DF00080E090E00E94950160E087E00E94DA00C8
:100E000060E08CE00E94DA0060E08DE00E94DA0091
:100E100083E00E940901E7E5F1E030927C008091D7
:100E20007A00806480937A0080917A0086FDFCCFFE
:100E3000609178008091790070E0782BAB01770F9A
:100E4000660B770B419351936193719380917F016E
:100E500090918001A0918101B09182018A019B0152
:100E6000080F191F2A1F3B1FC901B80100937F01FA
:100E700010938001209381013093820111E0EF37BC
:100E8000F10759F6A50194010E94700A30935601AA
:100E900020935501213931401CF5809153019091E7
:100EA0005401892BE9F4E1E0F0E0F0935201E09382
:100EB0005101F0935401E09353012FB7F8948091BE
:100EC000370190913801A0913901B0913A012FBFBB
:100ED00080934D0190934E01A0934F01B093500128
:100EE0008091550190915601803991400CF452C087
:100EF00020915301309154012130310509F04AC04D
:100F00008FB7F894409137015091380160913901C1
:100F100070913A018FBF80914D0190914E01A09147
:100F20004F01B0915001481B590B6A0B7B0B10927B
:100F300054011092530180914B0190914C01019604
:100F400090934C0180934B018091490190914A010B
:100F5000483E5340610571057CF09C012F5F3F4F77
:100F600030934A0120934901880F991FFC01EF5BE0
:100F7000FE4F22E030E00CC0AC014F5F5F4F50935A
:100F80004A0140934901880F991FFC01EF5BFE4F16
:100F90003183208380914B0190914C01049709F09B
:100FA0004EC210924C0110924B0110924A011092C5
:100FB0004901809141019091420182309105A9F54A
:100FC00080914301909144018230910509F0C1C0A4
:100FD00080914501909146010197E1F6809147018A
:100FE000909148010197B1F661E087E00E94DA0034
:100FF00060E08CE00E94DA0060E08DE00E94DA00A0
:101000006CE370E08EE391E00E94CF0165E470E054
:101010008BE391E00E94CF0160E778E080E090E010
:101020000E94950160E087E06EC0019709F0B2CFA1
:1010300080914301909144018230910579F580912E
:101040004501909146018130910509F05FC02091E2
:101050004701309148012230310509F057C060E066
:1010600087E00E94DA0061E08CE00E94DA0060E034
:101070008DE00E94DA0064E670E08EE391E00E9469
:10108000CF016DE670E08BE391E00E94CF0166E155
:1010900078E080E090E00E94950133C0019709F06C
:1010A00079CF8091450190914601029709F072CF66
:1010B0008091470190914801019709F06BCF61E061
:1010C00087E00E94DA0061E08CE00E94DA0060E0D4
:1010D0008DE00E94DA0064E670E08EE391E00E9409
:1010E000CF016DE670E08BE391E00E94CF016CE2EE
:1010F00070E180E090E00E94950160E087E00E944E
:10110000DA0060E08CE00E94DA0044CF029709F038
:1011100041CF8091470190914801019709F03ACF62
:1011200060E087E00E94DA0060E08CE00E94DA0074
:1011300061E08DE00E94DA0060E570E08EE391E00E
:101140000E94CF0169E570E08BE391E00E94CF013E
:10115000FFCF019709F01ECF809145019091460184
:10116000019709F017CF80914701909148010297AC
:1011700009F010CF61E087E00E94DA0068E770E0D4
:101180008EE391E00E94CF0168EE73E080E090E092
:101190000E94950161E08CE00E94DA0068E270E054
:1011A0008EE391E00E94CF016AEF70E080E090E072
:1011B0000E94950161E08DE00E94DA0068E770E02E
:1011C0008EE391E00E94CF016AEF70E080E090E052
:1011D0000E94950160E08DE00E94DA0068E270E014
:1011E0008EE391E00E94CF0160ED77E080E090E037
:1011F0000E94950160E08CE00E94DA0060E570E0FA
:101200008EE391E00E94CF0161E870E08BE391E012
:101210000E94CF0160ED77E080E090E00E949501B0
:1012200060E087E00E94DA0061E370E08BE391E028
:101230000E94CF016AEF70E080E090E00E9495018B
:1012400061E087E00E94DA0061E08CE00E94DA0051
:1012500061E870E08BE391E00E94CF016AEF70E0FB
:1012600080E090E00E94950160E08CE00E94DA004E
:1012700061E08DE00E94DA0061E370E08BE391E0D1
:101280000E94CF0168EE73E080E090E00E9495013B
:1012900061E08CE00E94DA0060E08DE00E94DA00FC
:1012A00060E087E00E94DA0061E870E08BE391E0A3
:1012B0000E94CF0168EE73E080E090E00E9495010B
:1012C00060E08CE00E94DA0061E08DE00E94DA00CC
:1012D00061E087E00E94DA0069E570E08BE391E06D
:1012E0000E94CF0185E090E00E94340364EF71E03A
:1012F00080E090E00E94950161E08CE00E94DA00BD
:101300000E94640261E370E08BE391E00E94CF01F0
:1013100068E770E08EE391E00E94CF0164EF71E036
:1013200080E090E00E94950160E087E00E94DA0092
:1013300061E08CE00E94DA0061E370E08BE391E011
:101340000E94CF0160E570E08EE391E00E94CF0142
:1013500068EE73E080E090E00E94950161E08DE02E
:101360000E94DA0060E08CE00E94DA0061E087E031
:101370000E94DA0068E270E08EE391E00E94CF0103
:1013800069E570E08BE391E00E94CF0168EE73E0C5
:1013900080E090E00E94950160E08CE00E94DA001D
:1013A00061E08DE00E94DA0061E087E00E94DA00EF
:1013B00085E090E00E94340364EF71E080E090E00B
:1013C0000E9495010E94640261E370E08BE391E06A
:1013D0000E94CF0168E770E08EE391E00E94CF01A8
:1013E00064EF71E080E090E00E94950161E08CE0A4
:1013F0000E94DA0061E08DE00E94DA0060E087E0A0
:101400000E94DA0068E770E08EE391E00E94CF016D
:1014100069E570E08BE391E00E94CF0160ED77E039
:1014200080E090E00E94950160E08CE00E94DA008C
:1014300060E08DE00E94DA000E946402ABCD109261
:1014400052011092510110927F011092800110926E
:1014500081011092820168EC70E080E090E00E94CF
:10146000950180E090E0892B09F48DCB0E9400006B
:1014700087CB809102018C30A0F491E0980F90937B
:10148000020180933E0190E0FC01EE0FFF1F8E0FE2
:101490009F1FFC01E75FFE4F88EB9BE092838183F7
:1014A00003C08FEF80933E01809102018C30A0F445
:1014B00091E0980F9093020180933B0190E0FC0132
:1014C000EE0FFF1F8E0F9F1FFC01E75FFE4F88EBA3
:1014D0009BE09283818308958FEF80933B01089571
:1014E000052E97FB1EF400940E94870A57FD07D033
:1014F0000E94A20A07FC03D04EF40C94870A509570
:101500004095309521953F4F4F4F5F4F08959095EF
:101510008095709561957F4F8F4F9F4F08950E94E2
:10152000C40AA59F900DB49F900DA49F800D911D9E
:1015300011240895B7FF0C948F0A0E948F0A821B12
:10154000930B0895A1E21A2EAA1BBB1BFD010DC02F
:10155000AA1FBB1FEE1FFF1FA217B307E407F50763
:1015600020F0A21BB30BE40BF50B661F771F881F3F
:10157000991F1A9469F760957095809590959B01D5
:10158000AC01BD01CF010895A29FB001B39FC0017E
:10159000A39F700D811D1124911DB29F700D811D9F
:1015A0001124911D0895991B79E004C0991F961785
:1015B00008F0961B881F7A95C9F780950895EE0F5D
:0E15C000FF1F0590F491E02D0994F894FFCFE1
:0215CE00FF001C
:00000001FF
